:0600000000308A003428E4
:10000800FD0003088301C1000408C2000A08C300F8
:100018008A010B110530831203138100071620088B
:100028003D3E8400831300088800071287152008C6
:10003800293E8400831300082D3E840083130008A2
:10004800880087110430A00A20020318A001420882
:10005800840043088A0041088300FD0E7D0E0900D4
:1000680020308400293046200030C5006E30C4009E
:100078002930840041304B200A128A11E3280406F3
:100088008001840A0406031D432864000034FE002E
:100098000A128A115B200A128A118000840A040855
:1000A8007E06031900344C2883120313C400C51BB1
:1000B8006628451B6E2845088A004408C40A0319A7
:1000C800C50A82008313451883174408C40A8400AC
:1000D800000808000034003400340034C034F93417
:1000E800A434B034993492348234F834803490345F
:1000F80088348334C634A13486348E3410342034A2
:100108004034803483018E018F0101309000051D39
:100118008F288F1F8B2890010F08A800A7010E08B1
:10012800FE00FF012708FE070318FF0A2808FF073B
:100138000800831603138501860187018801890158
:10014800FF3083128800851187160000000087128F
:1001580087150000000087110716880100000000BD
:1001680007128800071509108910091108009D2039
:10017800073083169F000515831205150330831673
:100188008100A0308B00C3308312810090010800E9
:1001980083018E018F01013090000519D5288F1F2A
:1001A800D12890010F08A800A7010E08FE00FF0142
:1001B8002708FE070318FF0A2808FF070800BB20C6
:1001C8000A128A110519E628CC207E08A5007F08A6
:1001D800A60021302602343003192502031CE62824
:1001E800253026021D30031925020318E62886202B
:1001F8007E08A5007F08A6000F302602A03003194C
:100208002502031CE628133026028930031925022B
:100218000318E628A301A401A101A201CC207E08AD
:10022800A5007F08A60000302602C8300319250261
:10023800031CE6280330260221300319250203187F
:10024800E62886207E08A5007F08A6000030260242
:10025800C83003192502031CE62807302602D130CE
:10026800031925020318E6282308293E840083136E
:100278000310800C04302602613003192502031C88
:1002880049292308293E84008017A10A0319A20AD4
:1002980000302202083003192102031C1229A30A84
:1002A8000319A40A00302402043003192302031C92
:1002B80010292B080F39A9002B0E0F39AA002C087A
:0C02C8000F39AB002C0E0F39AC00E628FB
:02400E00323F3F
:00000001FF
