:1000000020308400273012200730AB00FD30AA00DA
:10001000273084002A3017200A128A11BE2E0406C7
:100020008001840A0406031D0F2864000034F400D4
:100030000A128A1127200A128A118000840A0408F1
:10004000740603190034182883120313AA00AB1B8B
:1000500032282B1B3A282B088A002A08AA0A0319DF
:10006000AB0A820083132B1883172A08AA0A84007C
:10007000000808008207C034F934A434B03499343D
:1000800092348234F83480349034FF34BF348207A1
:0600900017341B341D347F
:100BC200830185118030A200A30107162208880044
:100BD20007128715A3080030031DFA2D8A00230887
:100BE200273E8400831300083A200A128A117F39B3
:100BF200012E8A002308273E8400831300083A202E
:100C0200880087110310A20C05300A128A111B26D4
:100C120007168801071201301B26A30A033023029C
:100C220003180800E62D8301A60083120313A60B06
:100C3200162E08008301A500C7301426A50B1D2E11
:100C420008008301A001A1010130831685000F3045
:100C5200831285000E3083169F00413083129F005D
:100C620001301B261F151F19342E1E08A000A101DA
:100C72002108F5002008F4000310F40DF50D03100F
:100C8200F40DF50D83161E0803138312A40006301B
:100C9200F6000310A40CF60B4A2E24087407A000D9
:100CA20075080318750AA100F5002008F4000A125D
:100CB2008A1197275E30F700FA30F8003E30F900CB
:100CC2000A128A1120270A128A1161277408A200C7
:100CD2007508A3006430F600F7012308F500220826
:100CE200F4000A128A11A0277808A7006430F600DF
:100CF200F7012308F5002208F4000A128A11A0273E
:100D02000A30F6000030F7010A128A11A02778088B
:100D1200A8006430F600F7012308F5002208F40069
:100D22000A128A11A0270A30F6000030F7010A12CF
:100D32008A11A0270A128A117408A90008008316D2
:100D4200031385018601870188018901FF3083121F
:100D520088008511871600000000871287150000A1
:100D620000008711071688010000000007128800A2
:100D720007150910891009110800A0268316051409
:100D820022260A128A11E125C12E84080319003491
:100D9200760880008403750880008403740880004C
:100DA2000034FC01750D760DFA007A080319DD2E68
:100DB200FC0DF601F5170800F401F501F601003407
:100DC200FC10780D790DFB007B080319ED2E03183A
:100DD200FC14F901F8170800FB01F701F801F90109
:100DE20008007A080319DD2EF513FC0C7A0CF600C4
:100DF2000318F517C62EFA08031D102FF401F5018A
:100E0200F601C62E76030319F40A0319F50A03192B
:100E1200F60A0310F60CF50CF40CFA0AFC2EF6088E
:100E2200031D032F740875040319FF2EF51BF22E00
:100E3200FA030319FF2E0310F40DF50D172F840189
:100E4200D226E126FD01FE01FF010730F900031061
:100E5200F80CF70C031C382F7408FD0775080318EB
:100E6200750FFE0776080318760FFF070310F40DBF
:100E7200F50DF60DF90B282F0930F900442F031058
:100E8200FF0CFE0CFD0C0310F80CF70C031C532F87
:100E92007408FD0775080318750FFE077608031816
:100EA200760FFF07F90B402F7C0CFC067D08F4003F
:100EB2007E08F5007F08F6007A307B07FA07FC2EE1
:100EC2008401D226F7018230FA07FA1BDD2EF030B8
:100ED200FA07FA1B7D2F18307A020318DD2EFA0862
:100EE200031D762F7C18EF270800FA030310F40D78
:100EF200F50DF60DF70D702F0310F60CF50CF40C32
:100F0200FA0F7D2F732FF71F892F7C14EF278A2F5B
:100F1200FC018E30FA008401F7080319FC2E03103D
:100F2200F70CF60CF50CF40CFA0A8D2FF601F51BF2
:100F3200F6037608F700842FF601F701892FFA01EC
:100F4200F51FAA2FF409F40A0319F503F5097A1714
:100F5200FA1777088039FA06F71FB62FF609F60A4C
:100F62000319F703F709B62FFA01F801F901760818
:100F72007704031DBF2FF401F50100341F30FA047A
:100F82000310FA0AF60DF70D031CC22FF70CF60C2C
:100F920077087502031DCF2F76087402031CD72F22
:100FA2007608F4027708031C770AF502F80DF90DAA
:100FB200FA0BFA1AC72FFA1FE32FF809F80A0319D6
:100FC200F903F9097808F6007908F7007A1F003466
:100FD200F409F40A0319F503F50900340310FF308C
:100FE200F407F409031CF507F509031CF607F609D3
:0E0FF200031CF707F709080000340034003430
:02400E00323F3F
:00000001FF
