:0600000000308A001F28F9
:10000800FF0003088301A1000A08A2008A010B115E
:1000180083120313A00A20081E3A031D1628A00104
:1000280001308806C330810022088A002108830035
:10003800FF0E7F0E0900A0010A128A1141288316BB
:10004800031385018601870188018901FF30831226
:1000580088008511871600000000871287150000A8
:1000680000008711071688010000000007128800A9
:100078000715091089100911080023208716073071
:1000880083168100A0308B00C330831281004B2877
:02400E00323F3F
:00000001FF
