:1000000020308400263012200730B800EF30B700CF
:1000100026308400373017200A128A11D02F0406A8
:100020008001840A0406031D0F2864000034FF00C9
:100030000A128A1127200A128A118000840A0408F1
:100040007F0603190034182883120313B700B81B66
:100050003228381B3A2838088A003708B70A0319AB
:10006000B80A82008313381883173708B70A840048
:04007000000808007C
:100EAE008301071610308800071287152108263E89
:100EBE0084008313000888008711023091270716DB
:100ECE00880107120230912707168030880007121A
:100EDE0087152208263E8400831300088800871198
:100EEE00023091270716880107120230912F8301D5
:100EFE00A40003178D0083160C140000000083124B
:100F0E000C08031308008301A50083120313A50B1D
:100F1E008C2F08008301A40090308A27A40B932FF6
:100F2E0008008301A500831603178C189A2F8312CD
:100F3E000313250803178D000313240803178C00D1
:100F4E0083168C130C1555308D00AA308D008C1421
:100F5E000C11830108008316031385018601870196
:100F6E0088018901FF3083128800851187160000E1
:100F7E0000008712871500000000871107168801F0
:100F8E0000000000071288000715091089100911CA
:100F9E000800B22721080A3A031DD72FA101A0018C
:100FAE002108A400200898270A30912720087E27C0
:100FBE00A200A30157270A128A1157270A128A1173
:100FCE00A30A64302302031CE12FA10AA00AD12F29
:100FDE00C034F934A434B034993492348234F834B1
:100FEE008034903488348334C634A13486348E34BD
:020FFE00FF34BE
:02400E00323F3F
:00000001FF
