:0A000000A001A1010A128A11E92FE4
:100F82008301A100C62FA00BC42F83120313A10B50
:100F9200C42F080083160313850186018701880187
:100FA2008901FF3083128800851187160000000036
:100FB20087128715000000008711071688010000BC
:100FC200000007128800071509108910091108008E
:100FD200CB270716FE3088000A30A000C127FD305B
:100FE20088000A30A000C127FB3088000A30A00028
:0E0FF200C127F73088000A30A000C127EB2F7E
:02400E00323F3F
:00000001FF
