:10000000203084004B300A200A128A11E22E0406A6
:0E0010008001840A0406031D072864000034E2
:100D88008316031385018601870188018901FF30D5
:100D980083128800851187160000000087128715C6
:100DA80000000000871107168801000000000712E4
:100DB80088000715091089100911080020308312CE
:100DC8000313A000A100A2005030A3004930A400E2
:100DD8004330A5002030A6004230A7004B30A800C1
:100DE8003330A9003030AA00AB002030AC00AD0091
:100DF800AE01AF00B000B1004C30B2004330B300D8
:100E08004430B4003130B5003630B6003230B70067
:100E18002030B8005430B9004530BA005330BB0018
:100E28005430BC00BD01C42685150A128A11C12799
:100E38000230BE00BF010A128A11AF27BE0120305E
:100E4800BF0000300A128A119527BE01BE0A2F3052
:100E5800BF0000300A128A1195270A128A11C83079
:100E68001D2F0A308301C900CA01462F49080319FA
:100E7800CA03C903490A03194A0A031D3A2F0A304B
:100E8800C900CA0147080319C803C703470A031959
:100E9800480A031908003A2F830187169630C700BD
:100EA800C801352787120800FF30830188008316A0
:100EB800880083128711071687160230C700C801F9
:100EC800352708088039C600C608031D652F871214
:100ED800871583168801831208008301C5005827E7
:100EE8000712C508031D7B2F871544087D2F87111E
:100EF8004508880050270A128A110230C700C80125
:100F080035270716871508008301C200C108031D8D
:100F1800902F4208803E922F4208C03EC300C40171
:100F2800712F8301C0003E08C100400888270A12BB
:100F38008A11A82F3F08840083130008C4000030DA
:100F480071270A128A11BF0A3F0884008313800898
:100F5800031908009E2FB52FE830C7000330C800DA
:100F68003527831203133E080319BF03BE033E0A45
:100F780003193F0A03190800B02F0F308301BE0080
:100F8800BF01AF278316880187018312C401383057
:100F980071270A128A11BE01BE0ABF01AF27C40118
:100FA800383071270A128A11BE01BE0ABF01AF2765
:100FB800C401383071270A128A11BE01BE0ABF0166
:100FC800AF27C401383071270A128A11C4010830CA
:100FD80071270A128A11C401013071270A128A1175
:100FE800C401063071270A128A11BE01BE0ABF0168
:080FF800AF27C4010C30712F7A
:02400E00323F3F
:00000001FF
