:10000000203084002B3012200730B700F530B600C6
:100010002B308400363017200A128A11682F04060C
:100020008001840A0406031D0F2864000034F900CF
:100030000A128A1127200A128A118000840A0408F1
:10004000790603190034182883120313B600B71B6E
:100050003228371B3A2837088A003608B60A0319AF
:10006000B70A82008313371883173608B60A84004C
:04007000000808007C
:100E26008301AA00182FA90B162F83120313AA0BEE
:100E3600162F080083018511A7018030A600A8019E
:100E4600071626088800071287152808203E840002
:100E5600831300082B3E8400831300088800871143
:100E66000310A60C0A30A9001327071688010712DB
:100E76000A30A90001301327A80A04302802031CEF
:100E8600232FA70A3230270203180800202F8316C3
:100E9600031385018601870188018901FF308312CA
:100EA600880085118716000000008712871500004C
:100EB600000087110716880100000000071288004D
:100EC600071509108910091108004A27A401A50170
:100ED600E830FB000330FC002508FA002408F9007E
:100EE6000A128A11BB277D08A000E830FB000330F8
:100EF600FC002508FA002408F9000A128A11BB270B
:100F06006430FB000030FC010A128A11BB277D0801
:100F1600A1006430FB00FC012508FA002408F90052
:100F26000A128A11BB270A30FB000030FC010A12A4
:100F36008A11BB277D08A2000A30FB00FC012508A8
:100F4600FA002408F9000A128A11BB277908A300BF
:100F56000A128A111D270A128A11A40A0319A50A60
:100F6600273025020F30031924020318692F6B2F2F
:100F7600FF01FD01FE017B087C04031DC52FF9015D
:100F8600FA0100341F30FF040310FF0AFB0DFC0DAD
:100F9600031CC82FFC0CFB0C7C087A02031DD52F02
:100FA6007B087902031CDD2F7B08F9027C08031CF1
:100FB6007C0AFA02FD0DFE0DFF0BFF1ACD2FFF1F57
:100FC600E92FFD09FD0A0319FE03FE097D08FB0052
:100FD6007E08FC007F1F0034F909F90A0319FA0399
:100FE600FA090034C034F934A434B0349934923454
:0A0FF6008234F83480349034FF3464
:02400E00323F3F
:00000001FF
