:0600000000308A002028F8
:10000800F80003088301BE000A08BF008A010B112B
:1000180083120313A00A2008143A031D1728A0010D
:10002800A10A0319A20A053081003F088A003E0888
:100038008300F80E780E0900203084002B3032201F
:100048000030BD005A30BC002B3084003C303720D3
:100058000A128A11C32804068001840A0406031DB3
:100068002F2864000034F9000A128A1147200A1266
:100078008A118000840A0408790603190034382894
:1000880083120313BC00BD1B52283D1B5A283D0890
:100098008A003C08BC0A0319BD0A820083133D1874
:1000A80083173C08BC0A840000080800C034F934EF
:1000B800A434B034993492348234F834803490348F
:1000C80088348334C634A13486348E34FF34FF0137
:1000D800FD01FE017B087C04031D7528F901FA0166
:1000E80000341F30FF040310FF0AFB0DFC0D031C36
:1000F8007828FC0CFB0C7C087A02031D85287B08F9
:100108007902031C8D287B08F9027C08031C7C0AF1
:10011800FA02FD0DFE0DFF0BFF1A7D28FF1F99281F
:10012800FD09FD0A0319FE03FE097D08FB007E0890
:10013800FC007F1F0034F909F90A0319FA03FA09C8
:10014800003483160313850186018701880189011C
:10015800FF3083128800851187160000000087127F
:1001680087150000000087110716880100000000AD
:100178000712880007150910891009110800A52021
:100188008712073083168100A0308B000530831258
:100198008100E830FB000330FC002208FA00210847
:1001A800F9000A128A116B207D08A300E830FB00D1
:1001B8000330FC002208FA002108F9000A128A110B
:1001C8006B206430FB000030FC010A128A116B209E
:1001D8007D08A4006430FB00FC012208FA00210815
:1001E800F9000A128A116B200A30FB000030FC016A
:1001F8000A128A116B207D08A5000A30FB00FC0159
:100208002208FA002108F9000A128A116B207908DD
:10021800A6000A128A111D210A128A11CD2883010B
:10022800AA001829A90B162983120313AA0B162949
:100238000800830185118030A700A8010716270848
:100248008800071287152808233E840083130008B6
:100258002B3E840083130008880087110310A70C25
:100268000A30A90013210716880107120A30A900CD
:1002780001301321A80A0430280203180800222993
:02400E00323F3F
:00000001FF
