:100000002030840025300A200A128A11E92F0406C4
:0E0010008001840A0406031D072864000034E2
:100F78008301A300C62F0A30A400A403240FC12FA5
:100F8800A20BBF2F83120313A30BC42F08008316D1
:100F9800031385018601870188018901FF308312C7
:100FA8008800851187160000000087128715000049
:100FB800000087110716880100000000071288004A
:100FC80007150910891009110800FF30831203134F
:100FD800A100CB278716FF30A100A00121088800B7
:100FE800C830A2001430BC270310A10CA00A093095
:080FF80020020318EF2FF22F75
:02400E00323F3F
:00000001FF
