:1000000020308400253012200730B700EF30B600D2
:1000100025308400363017200A128A116F2F04060B
:100020008001840A0406031D0F2864000034FE00CA
:100030000A128A1127200A128A118000840A0408F1
:100040007E0603190034182883120313B600B71B69
:100050003228371B3A2837088A003608B60A0319AF
:10006000B70A82008313371883173608B60A84004C
:04007000000808007C
:100E36008301A201EF30A400A30183168601831269
:100E460024080F3886000F308316860083120608A2
:100E56000F39A2000F3A0319352F2408F039FE0086
:100E6600FF0108000310A40DA30A0430230203188F
:100E76000800202F8301A200A20803190800A3017D
:100E8600A401A30A0319A40A03302402E8300319B3
:100E96002302031C442FA20B422F080083160313C0
:100EA60085018601870188018901FF308312880048
:100EB60085118716000000008712871500000000C4
:100EC6008711071688010000000007128800071521
:100ED600091089100911080083120313A101512773
:100EE600071680308800071287150F308316860094
:100EF6008312860006080F39A0000F3A0319E42F63
:100F060001303D2706080F39A0000F3A0319B32F09
:100F16001B277E08A1002008A104B32FA101A10A66
:100F2600E42F0230AF2F0330AF2F0430AF2F053040
:100F3600AF2F0630AF2F0730AF2F0830AF2F093055
:100F4600AF2F0A30AF2F0B30AF2F0C30AF2F0D3035
:100F5600AF2F0E30AF2F0F30A100E42FA101E42FE9
:100F66002108773A0319B12F0C3A0319AE2F063A26
:100F76000319AC2F033A0319AA2FC93A0319A82F4C
:100F86000C3A0319A62F063A0319A42F033A03199C
:100F9600A22F693A0319A02F0C3A03199E2F063A7D
:100FA60003199C2F033A03199A2F393A0319982FDC
:100FB6000C3A0319962F063A0319942F033A03198C
:100FC600912F02303D272108253E84008313000817
:100FD600880002303D27782FC034F934A434B03469
:100FE600993492348234F83480349034883483349B
:0A0FF600C634A13486348E34FF3473
:02400E00323F3F
:00000001FF
