:0600000000308A004428D4
:10000800FE0003088301BE000408BF000A08C00000
:100018008A010B11E8308312031381000716880147
:10002800071287152008213E8400831300088800E2
:100038008711071628281030262820302628403017
:1000480026288030880035282008003A03191F2800
:10005800013A03192128033A03192328013A0319FD
:10006800252807120430A00A20020318A0013F081F
:10007800840040088A003E088300FE0E7E0E0900B8
:1000880020308400323056200030C2007E30C1005B
:10009800323084003E305B200A128A11BA290406E5
:1000A8008001840A0406031D532864000034FF00FD
:1000B8000A128A116B200A128A118000840A040825
:1000C8007F06031900345C2883120313C100C21B86
:1000D8007628421B7E2842088A004108C10A031973
:1000E800C20A82008313421883174108C10A840098
:1000F80000080800C034F934A434B0349934923478
:100108008234F83480349034FF34FF349628DC305D
:10011800B100B10803199228B1038D28AF0803195B
:10012800B003AF038312031330082F040319080028
:100138008B2883012A08F039AF00AF0E0F30AF05C6
:100148002F08323E840083130008A4002A080F39C0
:10015800323E8400831300087F39A3002B08F0394E
:10016800AF00AF0E0F30AF052F08323E8400831367
:100178000008A2002B080F39323E840083130008C0
:10018800A10008000730831603138100A0308B00FC
:10019800E8308312810008008301AF00B001B1018B
:1001A800AF0A8316871000000000831207110000B1
:1001B80000000710000000000715000000000830CC
:1001C800B1002F1CE9288714EA28871000000000D6
:1001D8000714000000000710000000000310AF0C17
:1001E800B10BE5288316871400000000083083123D
:1001F800B1000310B00C8718B017000000000714F6
:1002080000000000071000000000B10BFD280711D6
:1002180000000000300808008C30D020A60088308C
:10022800D020A7008630D020A8008A30D020AC008B
:100238008430D020A9008230D020AA008030D0207D
:10024800AB0008008301B000B101831687100000DD
:1002580000008312071100000000071000000000D2
:100268000715000000000830B100301C3D29871434
:100278003E29871000000000071400000000071046
:10028800000000000310B00CB10B39290830B10090
:100298002F1C5029871451298710000000000714CB
:1002A800000000000710000000000310AF0CB10BA5
:1002B8004C29071100000000831687140000000075
:1002C8008312080080308301AF008E3026218E30E3
:1002D800D020803A0319013400348301AF018E30F5
:1002E80026218030AF002621A930AF00903026218A
:1002F8002608AF008C3026212708AF008830262139
:100308002808AF00863026212C08AF008A30262125
:100318002908AF00843026212A08AF008230262120
:100328002B08AF00803026218030AF008E30262980
:100338008316031385018601870188018901FF302F
:100348008312880085118716000000008712871520
:10035800000000008711071688010000000007123E
:100368008800071509108910091108008312031362
:10037800AD01AE01073083169F009C210930A6000D
:100388000830A7002030A8001230A900AA00AB014D
:100398000430AC0071210A128A11C62010210A12F9
:1003A8008A119D206430AF00B0018A20D2298301D0
:1003B800AD00DF29AD0383120313AD08031908004C
:0203C800DE292C
:02400E00323F3F
:00000001FF
