:0600000000308A006728B1
:10000800FE0003088301B6000408B7000A08B80018
:100018008A013908BB003A08BC00831603138C1EFA
:10002800332883128C1E3328831209156430A200EA
:10003800A3010A128A11ED201A08A0009900C830FD
:10004800A200A3010A128A11ED2009116430A2004E
:10005800A3010A128A11ED200A128A1158280B1DD1
:1000680058280B11C83083128100A10A2108023ACE
:10007800031D4B28A1018715200E0F39253E84004A
:100088008313000888008711071620305628871523
:1000980020080F39253E8400831300088800871143
:1000A8000716103088000712031383123B08B900A3
:1000B8003C08BA003708840038088A0036088300EC
:1000C800FE0E7E0E09002030840025307920003095
:1000D800BA00A130B9002530840036307E200A12DB
:1000E8008A11EA2804068001840A0406031D76287A
:1000F80064000034FF000A128A118E200A128A1145
:100108008000840A04087F06031900347F288312BC
:100118000313B900BA1B99283A1BA1283A088A0088
:100128003908B90A0319BA0A820083133A188317DF
:100138003908B90A840000080800C034F934A43426
:10014800B034993492348234F8348034903488341A
:100158008334C634A13486348E34FF340630831693
:1001680003138100A0308B00C830831281008030D7
:100178008316870019309900243098009030831234
:10018800980083168C168B170B1783120911080019
:100198008316031385018601870188018901FF30D1
:1001A80083128800851187160000000087128715C2
:1001B80000000000871107168801000000000712E0
:1001C800880007150910891009110800CC20B220F1
:1001D800EC28F3280330A400A403240FF02883128A
:1001E800031322080319A303A203220A0319230AEB
:0601F80003190800EE28C7
:02400E00323F3F
:00000001FF
