:0C000000A001A101A2010A128A11FA2F2E
:100F2A008301A20083120313A20B972F08008301E7
:100F3A00A100C7309527A10B9E2F0800FF3083160A
:100F4A000313860083128618B62F0A309C27861848
:100F5A00B42F3230A0072008950020089B00861C79
:100F6A00B42F061908000A309C270619C22FCE3062
:100F7A00A0072008950020089B0006190800C22F28
:100F8A00FF3083018600831686008113E0308312C6
:100F9A00A000950020089B003C3097009D008B0123
:100FAA00FF3083169200F8308700831208008316F8
:100FBA00031385018601870188018901FF308312A5
:100FCA008800851187160000000087128715000027
:100FDA000000871107168801000000000712880028
:100FEA0007150910891009110800DC27C5270430E4
:060FFA009200A327FE2F68
:02400E00323F3F
:00000001FF
