:060000000A128A11DF2A3A
:1005BE00AA01AB0183010A128A11062EF0008312E2
:1005CE000313871107127008880087160000831224
:1005DE00031387120800F1000A128A11FF220A1271
:1005EE008A1171080A128A11E5220A128A1108006C
:1005FE0083160313881783120313871107168716A2
:10060E00082B881B0B2B0C2B082B8712831603131E
:10061E0088130800F0000A128A11FF220A128A11AA
:10062E0083120313871507127008880087160000BF
:10063E008312031387120800F101B4307102031CF8
:10064E00292B2A2B2C2B372B372B0130F00070083F
:10065E00F107B4307102031C352B362B2C2B372BA4
:10066E000800FD00831203132408FC007C08F2002E
:10067E007D080A128A116C230A128A11831203133F
:10068E0025080A128A1111230A128A110800F50090
:10069E000A128A118C230A128A11A0300A128A11A8
:1006AE0075240A128A1175080A128A1175240A1203
:1006BE008A1174080A128A1175240A128A110A12F2
:1006CE008A11CF230A128A110800F4000F30F300AA
:1006DE007308F4050130F3007308F205F208031DE8
:1006EE00792B7A2B822B740880380A128A11F22207
:1006FE000A128A118B2B7408403E80380A128A1116
:10070E00F2220A128A118B2B08008312031305168C
:10071E000000000000000000000083120313851685
:10072E000A128A1123230A128A11831203138512C5
:10073E000A128A1123230A128A1183120313051235
:10074E000A128A1123230A128A1108008312031334
:10075E00AA18B22BB62B831203138516B92B83124C
:10076E000313851200000000000000000000831239
:10077E0003130516000000000000000000008312A5
:10078E000313051200000000000000000000080026
:10079E008312031385128512000000000000000072
:1007AE0000008312031305160A128A1123230A125C
:1007BE008A118312031385160A128A1123230A1231
:1007CE008A118312031305120A128A1123230A12A5
:1007DE008A110800831203132A1483160313851635
:1007EE008312031305160000000000000000000035
:1007FE00831203132A10851E052C2A1400000000F4
:10080E000000000000008312031305120000000018
:10081E000000000000008316031385120800F50087
:10082E000A128A118C230A128A11A0300A128A1116
:10083E0075240A128A1175080A128A1175240A1271
:10084E008A110A128A118C230A128A11A1300A12F5
:10085E008A1175240A128A110A128A11A7240A1201
:10086E008A11F4007408F6000A128A11CF230A12B4
:10087E008A117608422C0800F201F301692CF4016A
:10088E00F501003075020A3003197402031C502C56
:10089E00512C532C632C632C0130F4070318F50AEA
:1008AE000030F507003075020A3003197402031C7C
:1008BE00612C622C532C632C0130F2070318F30ABF
:1008CE000030F30771087302031D6F2C700872025B
:1008DE00031C722C732C462C742C0800F200F301AE
:1008EE0008307302031C7C2C7D2C7F2CA12CA12C98
:1008FE00F21F822C832C872C83120313AA148B2CA9
:10090E0083120313AA108B2C7208F0007007F100EB
:10091E007108F2000A128A11AD230A128A110130EF
:10092E00F0007008F30708307302031C9F2CA02CF4
:10093E007F2CA12C0A128A11F1230A128A110800A7
:10094E00F20108307202031CAD2CAE2CB02CD32C4D
:10095E00D32C7308F0007007F1007108F3000A122F
:10096E008A11F1230A128A11831203132A1CC02C36
:10097E00C12CC32C7314C82CFE30F0007008F30584
:10098E00C82C00000130F0007008F2070830720227
:10099E00031CD22CD32CB02C83120313AA140A12CC
:1009AE008A11AD230A128A117308DD2C08009630C5
:1009BE00F0000030F1000A128A1143240A128A1143
:1009CE0038300A128A11E5220A128A113230F000EA
:1009DE000030F1000A128A1143240A128A113830AB
:1009EE000A128A11E5220A128A113230F000003002
:1009FE00F1000A128A1143240A128A1138300A129F
:100A0E008A11E5220A128A1138300A128A11F2224C
:100A1E000A128A1108300A128A11F2220A128A1157
:100A2E0001300A128A11F2220A128A1106300A12B3
:100A3E008A11F2220A128A110C300A128A11F2223B
:100A4E000A128A110800F601F31F2E2D2F2D382DB4
:100A5E00F209F309F20A0319F30AF6010314F60D6B
:100A6E00382DF11F3B2D3C2D422DF009F109F00AD6
:100A7E000319F10A422D710870040319472D482DF0
:100A8E007E2DF5010314F50D582D01300310F00DD8
:100A9E00F10DFF3E031D4D2D0130F4007408F507D6
:100AAE00582DF11F5B2D5C2D4C2D5E2D5E2D71088A
:100ABE007302031D642D70087202031C672D682DCE
:100ACE006F2D7008F2027108031CF303F3026F2DF1
:100ADE0001300310F10CF00CFF3E031D702D0130A0
:100AEE00F502031D7B2D7C2D5E2D7E2D7E2D760831
:100AFE00031D822D882DF209F309F20A0319F30A58
:100B0E00882D7308F101F1077208F001F0078F2D9F
:100B1E00080083120313A101F81F962D972DA02D07
:100B2E00F709F809F70A0319F80AA1010314A10D30
:100B3E00A02DFA1FA32DA42DAE2DF909FA09F90A3D
:100B4E000319FA0A0130FB007B08A106AE2DA201A3
:100B5E00A301780877040319B52DB62DF42DA00145
:100B6E000314A00DC62D01300310F70DF80DFF3E36
:100B7E00031DBB2D0130FB007B08A007C62DF81FFF
:100B8E00C92DCA2DBA2DCC2DCC2D01300310A20D9E
:100B9E00A30DFF3E031DCD2D78087A02031DD92D1E
:100BAE0077087902031CDC2DDD2DE52D7708F9027F
:100BBE007808031CFA03FA022214E52D0130031003
:100BCE00F80CF70CFF3E031DE62D0130A002031DAD
:100BDE00F12DF22DCC2DF42DF42D2108031DF82D21
:100BEE00FE2DA209A309A20A0319A30AFE2D2308AA
:100BFE00F801F8072208F701F707052E080007305D
:100C0E00831603139F00C7308700CF3085008801FD
:100C1E0018300A128A1116240A128A11831203132B
:100C2E00A6002608A9000130A6002608A907290853
:100C3E00A6002608F40018300A128A114E230A1252
:100C4E008A110A128A11DE240A128A1183120313E0
:100C5E00A4012D30A6002608A50000300A128A1124
:100C6E0038230A128A1183120313A4012D30A60011
:100C7E002608A50001300A128A1138230A128A1199
:100C8E0083120313A4014130A6002608A5000230EA
:100C9E000A128A1138230A128A1183120313A4012D
:100CAE005430A6002608A50003300A128A113823F4
:100CBE000A128A1183120313A4013230A6002608E9
:100CCE00A50004300A128A1138230A128A118312DF
:100CDE000313A4013430A6002608A50005300A121D
:100CEE008A1138230A128A1183120313A401433086
:100CFE00A6002608A50006300A128A1138230A1209
:100D0E008A1183120313A4013030A6002608A50011
:100D1E0007300A128A1138230A128A11831203131A
:100D2E00A4013230A6002608A50008300A128A1146
:100D3E0038230A128A1183120313A4015430A60019
:100D4E002608A5000A300A128A1138230A128A11BF
:100D5E0083120313A4014530A6002608A5000B300C
:100D6E000A128A1138230A128A1183120313A4015C
:100D7E005330A6002608A5000C300A128A1138231B
:100D8E000A128A1183120313A4015430A6002608F6
:100D9E00A5000D300A128A1138230A128A11831205
:100DAE000313A4012D30A6002608A5000E300A124A
:100DBE008A1138230A128A1183120313A4012D30CB
:100DCE00A6002608A5000F300A128A1138230A122F
:100DDE008A1183120313A4010314A40D4230A6003A
:100DEE002608A50000300A128A1138230A128A1129
:100DFE0083120313A4010314A40D6F30A60026085A
:100E0E00A50001300A128A1138230A128A118312A0
:100E1E000313A4010314A40D6F30A6002608A50029
:100E2E0002300A128A1138230A128A11831203130E
:100E3E00A4010314A40D7430A6002608A5000330E7
:100E4E000A128A1138230A128A1183120313A4017B
:100E5E000314A40D7430A6002608A50005300A124E
:100E6E008A1138230A128A1183120313A401031460
:100E7E00A40D6930A6002608A50006300A128A11B4
:100E8E0038230A128A1183120313A4010314A40D2A
:100E9E006D30A6002608A50007300A128A113823E5
:100EAE000A128A1183120313A4010314A40D6530D0
:100EBE00A6002608A50008300A128A1138230A1245
:100ECE008A1183120313A4010314A40D7330A60018
:100EDE002608A50009300A128A1138230A128A112F
:100EEE0083120313A4010314A40D3A30A60026089E
:100EFE00A5000A300A128A1138230A128A118312A7
:100F0E000313A4010314A40D6430F7000030F8009D
:100F1E002908A600A7012608F9002708FA000A12D8
:100F2E008A1190250A128A117708303E8312031314
:100F3E00A8002808A5000C300A128A1138230A12BC
:100F4E008A1183120313A4010314A40D0A30F700AF
:100F5E000030F8002908A600A7012608F20027088D
:100F6E00F3006430F0000030F1000A128A112A25D5
:100F7E000A128A117108FA01FA077008F901F907C5
:100F8E000A128A1190250A128A117708303E8312AE
:100F9E000313A8002808A5000D300A128A11382361
:100FAE000A128A1183120313A4010314A40D0A302A
:100FBE00F0000030F1002908A600A7012608F20073
:100FCE002708F3000A128A112A250A128A117008BC
:100FDE00303E83120313A8002808A5000E300A1213
:100FEE008A1138230A128A11FC2FFC2F0A128A1139
:020FFE000028C9
:02400E00323F3F
:00000001FF
