:1000000020308400533012200730F400E030F30039
:1000100053308400733017200A128A116D2F0406A2
:100020008001840A0406031D0F2864000034FF00C9
:100030000A128A1127200A128A118000840A0408F1
:100040007F0603190034182883120313F300F41BEE
:100050003228741B3A2874088A007308F30A0319BB
:10006000F40A82008313741883177308F30A840058
:04007000000808007C
:100DA20005308301D000D003500FD42E08008301F8
:100DB200CF00871107128716D1264F0888008712A5
:100DC20008008301CF00871507128716D1264F0826
:100DD200880087120800F92ED101D201D10A031925
:100DE200D20A003052027D3003195102031CEF2E49
:100DF200831203134F080319D003CF034F0A0319B9
:100E0200500A03190800ED2E32308301CF00D001C1
:100E1200EC263030D8260A128A11CF01CF0AD0012F
:100E2200EC263030D8260A128A11CF01CF0AD0011F
:100E3200EC260C30D8260A128A11CF01CF0AD00133
:100E4200EC260130D8260A128A111430CF00D001C4
:100E5200EC2E8301CD00CE000310CE0D0310CE0D7B
:100E620003104E0D4B07533E840083130008D8260F
:100E72000A128A11482F4C08840083130008E226C4
:100E82000A128A11CC0A6430CF00D001EC264C0839
:100E9200840083138008031908003C2F8316031370
:100EA20085018601870188018901FF30831288004C
:100EB20085118716000000008712871500000000C8
:100EC2008711071688010000000007128800071525
:100ED2000910891009110800203083120313BC0085
:100EE200BD00D630BE00E930BF00BA30C000A3302A
:100EF200C100B230C200A930C300BF30C400C63046
:100F0200C500B530C600E730C700D730C800D330BF
:100F1200C900CA012030AD00AE004230AF004B30F4
:100F2200B0003330B1003030B200B3002030B40032
:100F3200BF30B500AA30B600B730B700A230B80053
:100F4200B030B900E530BA00BB012030A000A100EA
:100F5200B330A200AC30A300C730A400BF30A5005C
:100F6200D030A600D430A700BC30A800DB30A900E6
:100F7200B130AA00C830AB00AC014F2785156430F0
:100F8200CF00D001EC2605270A128A11E830CF00E3
:100F92000330D000EC26CB013C30CC0000302A27B5
:100FA200CB012D30CC0001302A27CB012030CC00E0
:100FB20002302A27D030CF000730D000C32F803430
:100FC2008134823483348434853486348734903453
:100FD20091349234933494349534963497348834DB
:100FE20089348A348B348C348D348E348F349834F3
:0E0FF20099349A349B349C349D349E349F3441
:02400E00323F3F
:00000001FF
