:060000000A128A111F2EF6
:100C3E00F901FA0183010A128A11A62FA730F000DA
:100C4E006130F1002B2E2B2E0130F0020030031CF0
:100C5E00F103F10271087004031D362E372E2B2E70
:100C6E00382E0800F101B4307102031C3F2E402EC5
:100C7E00422E4D2E4D2E0130F0007008F107B4308B
:100C8E007102031C4B2E4C2E422E4D2E0800F500E9
:100C9E000A128A118C260A128A11A0300A128A119F
:100CAE0045270A128A1175080A128A1145270A1257
:100CBE008A1174080A128A1145270A128A110A1219
:100CCE008A11AD260A128A110800F9186F2E732E9A
:100CDE00831203138516762E8312031385120000DA
:100CEE000000000000000000831203130516000030
:100CFE000000000000000000831203130512000024
:100D0E000000000000000000080083120313051607
:100D1E00000000000000000000008312031385167F
:100D2E000A128A1139260A128A11831203138512A6
:100D3E000A128A1139260A128A1183120313051216
:100D4E000A128A1139260A128A1108008312031315
:100D5E0085128512000000000000000000008312C2
:100D6E00031305160A128A1139260A128A118312E2
:100D7E00031385160A128A1139260A128A11831252
:100D8E00031305120A128A1139260A128A11080053
:100D9E0079148316031385168312031305160000A8
:100DAE000000000000000000791083120313851E5E
:100DBE00E12E7914000000000000000000008312F4
:100DCE00031305120000000000000000000083164F
:100DDE00031385120800831603138501860187010C
:100DEE0088018901FF30831203138800851187164D
:100DFE000000000083120313871287150000000005
:100E0E008312031387110716880100000000831256
:100E1E0003130712FF3088000715091089100911F6
:100E2E000800F5000A128A118C260A128A11A030C7
:100E3E000A128A1145270A128A1175080A128A1196
:100E4E0045270A128A110A128A118C260A128A1151
:100E5E00A1300A128A1145270A128A110A128A1122
:100E6E0073270A128A11F4007408F6000A128A1106
:100E7E00AD260A128A117608442F0800F200F301FB
:100E8E0008307302031C4C2F4D2F4F2F6D2F6D2FDB
:100E9E00F21F522F532F552FF914572FF910572F8A
:100EAE007208F0007007F1007108F2000A128A1140
:100EBE006C260A128A110130F0007008F307083010
:100ECE007302031C6B2F6C2F4F2F6D2F0A128A117A
:100EDE00CF260A128A110800F20108307202031C92
:100EEE00792F7A2F7C2F9D2F9D2F7308F00070077E
:100EFE00F1007108F3000A128A11CF260A128A1124
:100F0E00791C8A2F8B2F8D2F7314922FFE30F000A9
:100F1E007008F305922F00000130F0007008F20700
:100F2E0008307202031C9C2F9D2F7C2FF9140A127D
:100F3E008A116C260A128A117308A52F0800073031
:100F4E00831603139F000A128A11F2260A128A11BF
:100F5E00831203138716CF30F70077088316031317
:100F6E0085055530F7007708F40018300A128A11FB
:100F7E004E260A128A11AA30F7007708F4001930AB
:100F8E000A128A114E260A128A11CD2F18300A1211
:100F9E008A1118270A128A11F7007708F8007808C4
:100FAE008312031388000A128A1125260A128A1147
:100FBE000A128A1125260A128A1119300A128A116A
:100FCE0018270A128A11F7007708F800780883129A
:100FDE00031388000A128A1125260A128A110A1290
:100FEE008A1125260A128A11CD2FCD2F0A128A11A7
:020FFE000028C9
:02400E00323F3F
:00000001FF
