:0600000000308A001E28FA
:10000800FF0003088301A0000A08A1008A018316E3
:1000180003138C1E152883128C1E152883121A08A8
:1000280099000313831221088A0020088300FF0E19
:100038007F0E09000A128A113F28831603138501CF
:100048008601870188018901FF30831288008511A4
:10005800871600000000871287150000000087112E
:10006800071688010000000007128800071509100C
:100078008910091108002120C0308316870419301F
:1000880099002430980090308312980083168C16BB
:060098008B170B174E2828
:02400E00323F3F
:00000001FF
