:060000000A128A110C280F
:10000800FE00030EF0000A08F1000A128A113228D5
:100018000A128A11512883168501860187018801F1
:100028008901FF30831288008511871600000000BF
:10003800831203138712871500000000831203132D
:1000480087110716880100000000831203130712A6
:100058008800071509108910091108000B1E3C2893
:100068000B0803193C2801308B10831203138806F0
:1000780071088A00700E8300FE0E7E0E09000A12B7
:100088008A110F200A128A11013083168600831202
:1000980087160B168B170B17502883010A128A1123
:0200A8004328EB
:02400E00323F3F
:00000001FF
