:0C000000A001A101A2010A128A11C62F62
:100F50008316031385018601870188018901FF300B
:100F600083128800851187160000000087128715FC
:100F7000000000008711071688010000000007121A
:100F8000880007150910891009110800A8270730E3
:100F900083169F000A128A11D7270A128A11CA2FB4
:100FA0008301A20083120313A20BD22F08009030FA
:100FB0008301A0000130A100E12F013089066330D8
:100FC000D027FF30A007031CA10321082004031D24
:100FD000DD2FC830A000A101FF30A007031CA10332
:100FE000210820040319080001308906C730D027E2
:100FF000EC2F8301A000C730D027A00BFB2F0800E7
:02400E00323F3F
:00000001FF
