:1000000020308400253012200730AB00FB30AA00DE
:10001000253084002A3017200A128A11C62F0406C0
:100020008001840A0406031D0F2864000034FF00C9
:100030000A128A1127200A128A118000840A0408F1
:100040007F0603190034182883120313AA00AB1B80
:1000500032282B1B3A282B088A002A08AA0A0319DF
:10006000AB0A820083132B1883172A08AA0A84007C
:04007000000808007C
:100EF6008301A400802FA30B7E2F83120313A40B60
:100F06007E2F0800830185118030A100A2010716FB
:100F160021088800071287152208253E84008313BE
:100F26000008880087110310A10C0A30A3007B2754
:100F36000716880107120A30A30001307B27A20A90
:100F460004302202031808008A2F83160313850132
:100F56008601870188018901FF3083128800851187
:100F66008716000000008712871500000000871111
:100F760007168801000000000712880007150910EF
:100F8600891009110800A8270F30831686008312DE
:100F96008600831681139F01831206080F39A0006D
:100FA6000F3A031DE82FF52FF930A700F830E62F8A
:100FB600F930A7008030E62FF930A7009030E62FF1
:100FC600A430A700C030A800F52F2008073A03195F
:100FD600E32F0C3A0319DF2F063A0319DB2F033AE6
:100FE6000319D72F0A128A1185270A128A11CF2FC1
:0A0FF6009234BF34C034C03400341C
:02400E00323F3F
:00000001FF
